:1000000012C054C07AC02AC0D8C328C027C026C096
:1000100006C424C023C022C021C020C01FC01EC0EF
:100020001DC01CC01BC011241FBECFE5D4E0DEBF25
:10003000CDBF10E0A0E6B0E0E0E1F9E002C005903D
:100040000D92A03AB107D9F720E0A0EAB0E001C0D4
:100050001D92A43BB207E1F735D258C4D1CFFC01C1
:1000600080818823A1F025B79181892F90E0880FA6
:10007000991F880F991F822B85BF8BB780688BBF14
:10008000828193819093A1008093A0000DC095B7C9
:100090008181892B85BF8BB780648BBF82819381DF
:1000A0009093A3008093A200789408951F920F92DA
:1000B0000FB60F9211242F933F934F935F936F933B
:1000C0007F938F939F93AF93BF93EF93FF93E091B1
:1000D000A200F091A3000995FF91EF91BF91AF911C
:1000E0009F918F917F916F915F914F913F912F9150
:1000F0000F900FBE0F901F9018951F920F920FB682
:100100000F9211242F933F934F935F936F937F939D
:100110008F939F93AF93BF93EF93FF93E091A000D2
:10012000F091A1000995FF91EF91BF91AF919F913F
:100130008F917F916F915F914F913F912F910F9090
:100140000FBE0F901F901895FC018181813001F145
:1001500018F08230C9F1089527B39281892F90E079
:10016000008002C0880F991F0A94E2F7822B87BB98
:100170008281811144C028B39381892F90E000804F
:1001800002C0880F991F0A94E2F7822B88BB08955A
:1001900024B39281892F90E0008002C0880F991FBC
:1001A0000A94E2F7822B84BB8281811128C025B397
:1001B0009381892F90E0008002C0880F991F0A94D4
:1001C000E2F7822B85BB089521B39281892F90E0BD
:1001D000008002C0880F991F0A94E2F7822B81BB2E
:1001E000828181110CC022B39381892F90E000801D
:1001F00002C0880F991F0A94E2F7822B82BB0895F0
:100200008130E9F018F0823099F10895413059F4C5
:1002100028B381E090E002C0880F991F6A95E2F749
:10022000822B88BB089528B381E090E002C0880F3C
:10023000991F6A95E2F78095822388BB0895413023
:1002400059F425B381E090E002C0880F991F6A95A8
:10025000E2F7822B85BB089525B381E090E002C0D0
:10026000880F991F6A95E2F78095822385BB0895D0
:10027000413059F422B381E090E002C0880F991F09
:100280006A95E2F7822B82BB089522B381E090E069
:1002900002C0880F991F6A95E2F78095822382BB7E
:1002A0000895813079F018F08230B9F0089528B3BC
:1002B00081E090E002C0880F991F6A95E2F78227DB
:1002C00088BB089525B381E090E002C0880F991F94
:1002D0006A95E2F7822785BB089522B381E090E01A
:1002E00002C0880F991F6A95E2F7822782BB0895A2
:1002F000813079F018F08230B9F021C086B390E0F7
:1003000002C0969587956A95E2F780FD1AC080E055
:10031000089583B390E002C0969587956A95E2F7B9
:1003200080FD11C080E0089580B390E002C09695F2
:1003300087956A95E2F780FD08C080E0089580E027
:10034000089581E0089581E0089581E0089522B341
:100350002F70382F307F40E1849FC0011124922FED
:10036000932B92BB92B3946092BB92B39B7F92BB50
:10037000EFE3FFE13197F1F700C00000822B82BB71
:1003800082B3846082BB82B38B7F82BB08958FE38C
:100390009FE10197F1F700C0000008958FE39FE10E
:1003A0000197F1F700C0000087EF81BB82B38E7F19
:1003B00082BBEDDF83E0CBDFEADF83E0C8DFE7DF8E
:1003C00083E0C5DFE4DF82E0C2DFE1DF88E2BFDF98
:1003D000DEDF88E0BCDFDBDF86E0B9DFD8DF8CE082
:1003E000B6DFD5DF089582B38E7F82BB81E0AFDFB9
:1003F000CEDF089592B3916092BBA9DFC8DF089564
:100400000F931F93CF938C01C0E007C0882311F096
:10041000F1DF02C080E2EEDFCF5FF801EC0FF11DEB
:1004200080818111F3CFCF911F910F910895282FD3
:1004300030E021503109862F90E4299F800D11244E
:1004400092B39E7F92BB815882DFA1DF0895809195
:10045000A5009091A60001969093A6008093A50018
:10046000089580916200823061F18091A5009091A1
:10047000A6009C01220F331F4AE069EA70E0820F58
:10048000931F11D261E082E0D2DF1092A40008C075
:1004900087E990E0B5DF8091A4008F5F8093A4008E
:1004A0008091A4008C30A0F361E082E0C0DF85E69B
:1004B00090E0A6DF89EA90E0A3DF1092A6001092F8
:1004C000A5000895CF93DF93CDB7DEB764970FB63D
:1004D000F894DEBF0FBECDBF1A821B8211E01C83D1
:1004E00002E00983CE0101962FDE1982CE0101962A
:1004F0002BDE1983CE01019627DE6894FF24F2F8E3
:10050000F982CE01019620DE1E831F830887FD82BB
:10051000CE01059619DE85E08D83CE01059614DEA9
:100520001A860F2EF3E0FF2EF02DF9861B870C871D
:10053000CE01099609DE0E87FD861F86188BCE0137
:100540000D9602DE0A8B198B87E292E09C8B8B8BD7
:10055000CE01419684DD40E065E081E051DE40E07F
:1005600064E081E04DDE82D119DF3DDF8BE690E073
:1005700047DF61E082E05BDF8AE790E041DF81E313
:1005800092E080D1809162008130B9F52091AF0076
:100590003091B00080916300909164002817390772
:1005A00061F1809160004AE06CEA70E090E07BD1FC
:1005B00061E081E03CDF1092A40008C087E990E090
:1005C0001FDF8091A4008F5F8093A4008091A4001E
:1005D0008C30A0F361E081E02ADF88E890E010DF52
:1005E0008CEA90E00DDF85E205DF80916300909159
:1005F00064009093B0008093AF0062E080E078DE0A
:10060000811152C080916200823011F0811117C0B7
:1006100081E08093620041E064E0F2DD40E065E06B
:1006200081E0EEDD6DE082E002DF85E990E0E8DE6A
:100630006DE082E0FCDE8FE890E0E2DE0BC064E07B
:1006400081E02FDE65E081E02CDE8091A8008095BE
:100650008093A8008091A8009091A7008917F9F0D5
:10066000882369F06DE082E0E2DE85E990E0C8DE93
:100670006DE082E0DCDE8EE890E0C2DE0CC06DE072
:1006800082E0D5DE85E990E0BBDE6DE082E0CFDE82
:100690008FE890E0B5DE8091A8008093A70062E02B
:1006A00080E026DE8823D9F380916200882309F454
:1006B00069CF61E080E01CDE81111FC08091630082
:1006C000909164008A3F910538F08FEF90E090930D
:1006D00064008093630047C04996909364008093C0
:1006E0006300DFD080916000865F8093600061E0EE
:1006F00080E0FEDD8823D9F336C064E080E0F8DDD9
:1007000081111DC080916300909164008B30910530
:1007100028F4109264001092630025C049979093CA
:10072000640080936300BDD0809160008A50809304
:10073000600064E080E0DCDD8823D9F314C060E071
:1007400080E0D6DD81110FC01092620040E064E0CD
:1007500081E056DD40E065E081E052DD60E080E070
:10076000C7DD8823D9F380916200909161008917D9
:1007700009F408CF813081F46DE059DE82E990E020
:100780003FDE6DE081E053DE89E990E039DE809163
:10079000620080936100F6CE6DE081E048DE82E980
:1007A00090E02EDE6DE081E042DE8CE990E028DE14
:1007B0008091620080936100E5CE1F920F920FB688
:1007C0000F9211242F933F934F935F936F937F93D7
:1007D0008F939F93AF93BF93EF93FF938091B1005B
:1007E0008F5F8093B1008091B1008D3338F010920B
:1007F000B100E091B200F091B3000995FF91EF9143
:10080000BF91AF919F918F917F916F915F914F9128
:100810003F912F910F900FBE0F901F9018951F9230
:100820000F920FB60F9211242F933F934F935F9324
:100830006F937F938F939F93AF93BF93EF93FF93A8
:10084000E091B200F091B3000995FF91EF91BF9153
:10085000AF919F918F917F916F915F914F913F9158
:100860002F910F900FBE0F901F90189585B588643B
:1008700085BD85B5806285BD85B5866085BD80E80E
:1008800083BD08959C011FBC84E08EBD1DBC1CBCB3
:1008900099B7946099BF3093B3002093B2007894D5
:1008A000089583BD0895BB274A3031F4992322F47B
:1008B000BDE2909581959F4F01C0BB27FB01552755
:1008C000AA27880F991FAA1FA41710F0A41B8395AD
:1008D0005051B9F7A05DAA3308F0A95DA193009724
:1008E00079F7B111B1931192CB0100C0DC01FC0189
:1008F000672F71917723E1F7329704C07C916D9354
:1009000070836291AE17BF07C8F30895F894FFCFC4
:10091000320202800072706D3A2000546869656E80
:100920002032303231363234330044756E67203233
:10093000303231363036350050574D3A200043437F
:100940005700202020202020004F6E004F666600B8
:00000001FF
